{
  "_format": "hh-sol-artifact-1",
  "contractName": "CAC",
  "sourceName": "contracts/CAC.sol",
  "abi": [
    {
      "inputs": [
        {
          "internalType": "string",
          "name": "initBaseURI",
          "type": "string"
        },
        {
          "internalType": "string",
          "name": "initUnrevealedURI",
          "type": "string"
        }
      ],
      "stateMutability": "nonpayable",
      "type": "constructor"
    },
    {
      "anonymous": false,
      "inputs": [
        {
          "indexed": true,
          "internalType": "address",
          "name": "owner",
          "type": "address"
        },
        {
          "indexed": true,
          "internalType": "address",
          "name": "approved",
          "type": "address"
        },
        {
          "indexed": true,
          "internalType": "uint256",
          "name": "tokenId",
          "type": "uint256"
        }
      ],
      "name": "Approval",
      "type": "event"
    },
    {
      "anonymous": false,
      "inputs": [
        {
          "indexed": true,
          "internalType": "address",
          "name": "owner",
          "type": "address"
        },
        {
          "indexed": true,
          "internalType": "address",
          "name": "operator",
          "type": "address"
        },
        {
          "indexed": false,
          "internalType": "bool",
          "name": "approved",
          "type": "bool"
        }
      ],
      "name": "ApprovalForAll",
      "type": "event"
    },
    {
      "anonymous": false,
      "inputs": [
        {
          "indexed": true,
          "internalType": "address",
          "name": "previousOwner",
          "type": "address"
        },
        {
          "indexed": true,
          "internalType": "address",
          "name": "newOwner",
          "type": "address"
        }
      ],
      "name": "OwnershipTransferred",
      "type": "event"
    },
    {
      "anonymous": false,
      "inputs": [
        {
          "indexed": true,
          "internalType": "address",
          "name": "from",
          "type": "address"
        },
        {
          "indexed": true,
          "internalType": "address",
          "name": "to",
          "type": "address"
        },
        {
          "indexed": true,
          "internalType": "uint256",
          "name": "tokenId",
          "type": "uint256"
        }
      ],
      "name": "Transfer",
      "type": "event"
    },
    {
      "inputs": [],
      "name": "MAX_SUPPLY",
      "outputs": [
        {
          "internalType": "uint256",
          "name": "",
          "type": "uint256"
        }
      ],
      "stateMutability": "view",
      "type": "function"
    },
    {
      "inputs": [],
      "name": "_isSaleActive",
      "outputs": [
        {
          "internalType": "bool",
          "name": "",
          "type": "bool"
        }
      ],
      "stateMutability": "view",
      "type": "function"
    },
    {
      "inputs": [],
      "name": "_revealed",
      "outputs": [
        {
          "internalType": "bool",
          "name": "",
          "type": "bool"
        }
      ],
      "stateMutability": "view",
      "type": "function"
    },
    {
      "inputs": [
        {
          "internalType": "address",
          "name": "to",
          "type": "address"
        },
        {
          "internalType": "uint256",
          "name": "tokenId",
          "type": "uint256"
        }
      ],
      "name": "approve",
      "outputs": [],
      "stateMutability": "nonpayable",
      "type": "function"
    },
    {
      "inputs": [
        {
          "internalType": "address",
          "name": "owner",
          "type": "address"
        }
      ],
      "name": "balanceOf",
      "outputs": [
        {
          "internalType": "uint256",
          "name": "",
          "type": "uint256"
        }
      ],
      "stateMutability": "view",
      "type": "function"
    },
    {
      "inputs": [],
      "name": "baseExtension",
      "outputs": [
        {
          "internalType": "string",
          "name": "",
          "type": "string"
        }
      ],
      "stateMutability": "view",
      "type": "function"
    },
    {
      "inputs": [],
      "name": "flipRevealed",
      "outputs": [],
      "stateMutability": "nonpayable",
      "type": "function"
    },
    {
      "inputs": [],
      "name": "flipSaleActive",
      "outputs": [],
      "stateMutability": "nonpayable",
      "type": "function"
    },
    {
      "inputs": [
        {
          "internalType": "uint256",
          "name": "tokenId",
          "type": "uint256"
        }
      ],
      "name": "getApproved",
      "outputs": [
        {
          "internalType": "address",
          "name": "",
          "type": "address"
        }
      ],
      "stateMutability": "view",
      "type": "function"
    },
    {
      "inputs": [],
      "name": "getContractBalance",
      "outputs": [
        {
          "internalType": "uint256",
          "name": "",
          "type": "uint256"
        }
      ],
      "stateMutability": "view",
      "type": "function"
    },
    {
      "inputs": [],
      "name": "getMaxBalance",
      "outputs": [
        {
          "internalType": "uint256",
          "name": "",
          "type": "uint256"
        }
      ],
      "stateMutability": "view",
      "type": "function"
    },
    {
      "inputs": [],
      "name": "getMaxMint",
      "outputs": [
        {
          "internalType": "uint256",
          "name": "",
          "type": "uint256"
        }
      ],
      "stateMutability": "view",
      "type": "function"
    },
    {
      "inputs": [],
      "name": "getMaxSupply",
      "outputs": [
        {
          "internalType": "uint256",
          "name": "",
          "type": "uint256"
        }
      ],
      "stateMutability": "pure",
      "type": "function"
    },
    {
      "inputs": [],
      "name": "getMintPrice",
      "outputs": [
        {
          "internalType": "uint256",
          "name": "",
          "type": "uint256"
        }
      ],
      "stateMutability": "view",
      "type": "function"
    },
    {
      "inputs": [],
      "name": "getOwnerBalance",
      "outputs": [
        {
          "internalType": "uint256",
          "name": "",
          "type": "uint256"
        }
      ],
      "stateMutability": "view",
      "type": "function"
    },
    {
      "inputs": [],
      "name": "getRevealed",
      "outputs": [
        {
          "internalType": "bool",
          "name": "",
          "type": "bool"
        }
      ],
      "stateMutability": "view",
      "type": "function"
    },
    {
      "inputs": [],
      "name": "getSaleActive",
      "outputs": [
        {
          "internalType": "bool",
          "name": "",
          "type": "bool"
        }
      ],
      "stateMutability": "view",
      "type": "function"
    },
    {
      "inputs": [],
      "name": "getTotalSupply",
      "outputs": [
        {
          "internalType": "uint256",
          "name": "",
          "type": "uint256"
        }
      ],
      "stateMutability": "view",
      "type": "function"
    },
    {
      "inputs": [
        {
          "internalType": "address",
          "name": "owner",
          "type": "address"
        },
        {
          "internalType": "address",
          "name": "operator",
          "type": "address"
        }
      ],
      "name": "isApprovedForAll",
      "outputs": [
        {
          "internalType": "bool",
          "name": "",
          "type": "bool"
        }
      ],
      "stateMutability": "view",
      "type": "function"
    },
    {
      "inputs": [],
      "name": "isContractOwner",
      "outputs": [
        {
          "internalType": "bool",
          "name": "",
          "type": "bool"
        }
      ],
      "stateMutability": "view",
      "type": "function"
    },
    {
      "inputs": [],
      "name": "maxBalance",
      "outputs": [
        {
          "internalType": "uint256",
          "name": "",
          "type": "uint256"
        }
      ],
      "stateMutability": "view",
      "type": "function"
    },
    {
      "inputs": [],
      "name": "maxMint",
      "outputs": [
        {
          "internalType": "uint256",
          "name": "",
          "type": "uint256"
        }
      ],
      "stateMutability": "view",
      "type": "function"
    },
    {
      "inputs": [
        {
          "internalType": "uint256",
          "name": "tokenQuantity",
          "type": "uint256"
        }
      ],
      "name": "mint",
      "outputs": [],
      "stateMutability": "payable",
      "type": "function"
    },
    {
      "inputs": [],
      "name": "mintPrice",
      "outputs": [
        {
          "internalType": "uint256",
          "name": "",
          "type": "uint256"
        }
      ],
      "stateMutability": "view",
      "type": "function"
    },
    {
      "inputs": [],
      "name": "name",
      "outputs": [
        {
          "internalType": "string",
          "name": "",
          "type": "string"
        }
      ],
      "stateMutability": "view",
      "type": "function"
    },
    {
      "inputs": [],
      "name": "owner",
      "outputs": [
        {
          "internalType": "address",
          "name": "",
          "type": "address"
        }
      ],
      "stateMutability": "view",
      "type": "function"
    },
    {
      "inputs": [
        {
          "internalType": "uint256",
          "name": "tokenId",
          "type": "uint256"
        }
      ],
      "name": "ownerOf",
      "outputs": [
        {
          "internalType": "address",
          "name": "",
          "type": "address"
        }
      ],
      "stateMutability": "view",
      "type": "function"
    },
    {
      "inputs": [],
      "name": "renounceOwnership",
      "outputs": [],
      "stateMutability": "nonpayable",
      "type": "function"
    },
    {
      "inputs": [
        {
          "internalType": "address",
          "name": "from",
          "type": "address"
        },
        {
          "internalType": "address",
          "name": "to",
          "type": "address"
        },
        {
          "internalType": "uint256",
          "name": "tokenId",
          "type": "uint256"
        }
      ],
      "name": "safeTransferFrom",
      "outputs": [],
      "stateMutability": "nonpayable",
      "type": "function"
    },
    {
      "inputs": [
        {
          "internalType": "address",
          "name": "from",
          "type": "address"
        },
        {
          "internalType": "address",
          "name": "to",
          "type": "address"
        },
        {
          "internalType": "uint256",
          "name": "tokenId",
          "type": "uint256"
        },
        {
          "internalType": "bytes",
          "name": "_data",
          "type": "bytes"
        }
      ],
      "name": "safeTransferFrom",
      "outputs": [],
      "stateMutability": "nonpayable",
      "type": "function"
    },
    {
      "inputs": [
        {
          "internalType": "address",
          "name": "operator",
          "type": "address"
        },
        {
          "internalType": "bool",
          "name": "approved",
          "type": "bool"
        }
      ],
      "name": "setApprovalForAll",
      "outputs": [],
      "stateMutability": "nonpayable",
      "type": "function"
    },
    {
      "inputs": [
        {
          "internalType": "string",
          "name": "newBaseExtension",
          "type": "string"
        }
      ],
      "name": "setBaseExtension",
      "outputs": [],
      "stateMutability": "nonpayable",
      "type": "function"
    },
    {
      "inputs": [
        {
          "internalType": "string",
          "name": "newbaseURI",
          "type": "string"
        }
      ],
      "name": "setBaseURI",
      "outputs": [],
      "stateMutability": "nonpayable",
      "type": "function"
    },
    {
      "inputs": [
        {
          "internalType": "uint256",
          "name": "newMaxBalance",
          "type": "uint256"
        }
      ],
      "name": "setMaxBalance",
      "outputs": [],
      "stateMutability": "nonpayable",
      "type": "function"
    },
    {
      "inputs": [
        {
          "internalType": "uint256",
          "name": "newMaxMint",
          "type": "uint256"
        }
      ],
      "name": "setMaxMint",
      "outputs": [],
      "stateMutability": "nonpayable",
      "type": "function"
    },
    {
      "inputs": [
        {
          "internalType": "uint256",
          "name": "newMintPrice",
          "type": "uint256"
        }
      ],
      "name": "setMintPrice",
      "outputs": [],
      "stateMutability": "nonpayable",
      "type": "function"
    },
    {
      "inputs": [
        {
          "internalType": "string",
          "name": "newUnrevealedURI",
          "type": "string"
        }
      ],
      "name": "setUnrevealedURI",
      "outputs": [],
      "stateMutability": "nonpayable",
      "type": "function"
    },
    {
      "inputs": [
        {
          "internalType": "bytes4",
          "name": "interfaceId",
          "type": "bytes4"
        }
      ],
      "name": "supportsInterface",
      "outputs": [
        {
          "internalType": "bool",
          "name": "",
          "type": "bool"
        }
      ],
      "stateMutability": "view",
      "type": "function"
    },
    {
      "inputs": [],
      "name": "symbol",
      "outputs": [
        {
          "internalType": "string",
          "name": "",
          "type": "string"
        }
      ],
      "stateMutability": "view",
      "type": "function"
    },
    {
      "inputs": [
        {
          "internalType": "uint256",
          "name": "index",
          "type": "uint256"
        }
      ],
      "name": "tokenByIndex",
      "outputs": [
        {
          "internalType": "uint256",
          "name": "",
          "type": "uint256"
        }
      ],
      "stateMutability": "view",
      "type": "function"
    },
    {
      "inputs": [
        {
          "internalType": "address",
          "name": "owner",
          "type": "address"
        },
        {
          "internalType": "uint256",
          "name": "index",
          "type": "uint256"
        }
      ],
      "name": "tokenOfOwnerByIndex",
      "outputs": [
        {
          "internalType": "uint256",
          "name": "",
          "type": "uint256"
        }
      ],
      "stateMutability": "view",
      "type": "function"
    },
    {
      "inputs": [
        {
          "internalType": "uint256",
          "name": "tokenId",
          "type": "uint256"
        }
      ],
      "name": "tokenURI",
      "outputs": [
        {
          "internalType": "string",
          "name": "",
          "type": "string"
        }
      ],
      "stateMutability": "view",
      "type": "function"
    },
    {
      "inputs": [],
      "name": "totalSupply",
      "outputs": [
        {
          "internalType": "uint256",
          "name": "",
          "type": "uint256"
        }
      ],
      "stateMutability": "view",
      "type": "function"
    },
    {
      "inputs": [
        {
          "internalType": "address",
          "name": "from",
          "type": "address"
        },
        {
          "internalType": "address",
          "name": "to",
          "type": "address"
        },
        {
          "internalType": "uint256",
          "name": "tokenId",
          "type": "uint256"
        }
      ],
      "name": "transferFrom",
      "outputs": [],
      "stateMutability": "nonpayable",
      "type": "function"
    },
    {
      "inputs": [
        {
          "internalType": "address",
          "name": "newOwner",
          "type": "address"
        }
      ],
      "name": "transferOwnership",
      "outputs": [],
      "stateMutability": "nonpayable",
      "type": "function"
    },
    {
      "inputs": [],
      "name": "unrevealedURI",
      "outputs": [
        {
          "internalType": "string",
          "name": "",
          "type": "string"
        }
      ],
      "stateMutability": "view",
      "type": "function"
    },
    {
      "inputs": [
        {
          "internalType": "address",
          "name": "to",
          "type": "address"
        }
      ],
      "name": "withdraw",
      "outputs": [],
      "stateMutability": "nonpayable",
      "type": "function"
    }
  ],
  "bytecode": "0x60c06040526005608081905264173539b7b760d91b60a09081526200002891600d919062000237565b50600e805461ffff191690556005600f556002601055666a94d74f4300006011553480156200005657600080fd5b5060405162002ba338038062002ba3833981016040819052620000799162000390565b604080518082018252601181527021b434b63634b7339020bb379021b63ab160791b60208083019182528351808501909452600384526243414360e81b908401528151919291620000cd9160009162000237565b508051620000e390600190602084019062000237565b50505062000100620000fa6200011e60201b60201c565b62000122565b6200010b8262000174565b6200011681620001dc565b50506200044a565b3390565b600a80546001600160a01b038381166001600160a01b0319831681179093556040519116919082907f8be0079c531659141344cd1fd0a4f28419497f9722a3daafe3b4186f6b6457e090600090a35050565b600a546001600160a01b03163314620001c35760405162461bcd60e51b8152602060048201819052602482015260008051602062002b8383398151915260448201526064015b60405180910390fd5b8051620001d890600b90602084019062000237565b5050565b600a546001600160a01b03163314620002275760405162461bcd60e51b8152602060048201819052602482015260008051602062002b838339815191526044820152606401620001ba565b8051620001d890600c9060208401905b8280546200024590620003f7565b90600052602060002090601f016020900481019282620002695760008555620002b4565b82601f106200028457805160ff1916838001178555620002b4565b82800160010185558215620002b4579182015b82811115620002b457825182559160200191906001019062000297565b50620002c2929150620002c6565b5090565b5b80821115620002c25760008155600101620002c7565b600082601f830112620002ee578081fd5b81516001600160401b03808211156200030b576200030b62000434565b604051601f8301601f19908116603f0116810190828211818310171562000336576200033662000434565b8160405283815260209250868385880101111562000352578485fd5b8491505b8382101562000375578582018301518183018401529082019062000356565b838211156200038657848385830101525b9695505050505050565b60008060408385031215620003a3578182fd5b82516001600160401b0380821115620003ba578384fd5b620003c886838701620002dd565b93506020850151915080821115620003de578283fd5b50620003ed85828601620002dd565b9150509250929050565b600181811c908216806200040c57607f821691505b602082108114156200042e57634e487b7160e01b600052602260045260246000fd5b50919050565b634e487b7160e01b600052604160045260246000fd5b612729806200045a6000396000f3fe6080604052600436106102885760003560e01c806370a082311161015a578063a7f93ebd116100c1578063da3ef23f1161007a578063da3ef23f14610703578063de8b51e114610723578063e985e9c514610738578063f2fde38b14610781578063f4a0a528146107a1578063fe2c7fee146107c157600080fd5b8063a7f93ebd1461066f578063b88d4fde14610684578063c3e1888e146106a4578063c4e41b22146106b9578063c6682862146106ce578063c87b56dd146106e357600080fd5b806394cc41401161011357806394cc4140146105d257806395d89b41146105ef57806397db4fe3146106045780639d51d9b71461061c578063a0712d681461063c578063a22cb4651461064f57600080fd5b806370a082311461053e578063715018a61461055e57806373ad468a146105735780637501f741146105895780637f7dcdbf1461059f5780638da5cb5b146105b457600080fd5b80634c0f38c2116101fe5780636352211e116101b75780636352211e146104a55780636817c76c146104c55780636ebeac85146104db5780636f9fb98a146104fa5780637035bf181461050f5780637080d6fc1461052457600080fd5b80634c0f38c2146103fc5780634f6ccce71461041057806351cff8d914610430578063547520fe1461045057806355f804b314610470578063590791f21461049057600080fd5b80631f46452f116102505780631f46452f1461035d57806323b872dd146103725780632f745c591461039257806332cb6b0c146103b25780633b2c3fb6146103c757806342842e0e146103dc57600080fd5b806301ffc9a71461028d57806306fdde03146102c2578063081812fc146102e4578063095ea7b31461031c57806318160ddd1461033e575b600080fd5b34801561029957600080fd5b506102ad6102a83660046122c8565b6107e1565b60405190151581526020015b60405180910390f35b3480156102ce57600080fd5b506102d761080c565b6040516102b991906124b8565b3480156102f057600080fd5b506103046102ff366004612346565b61089e565b6040516001600160a01b0390911681526020016102b9565b34801561032857600080fd5b5061033c61033736600461229f565b610938565b005b34801561034a57600080fd5b506008545b6040519081526020016102b9565b34801561036957600080fd5b5060105461034f565b34801561037e57600080fd5b5061033c61038d3660046121b1565b610a4e565b34801561039e57600080fd5b5061034f6103ad36600461229f565b610a7f565b3480156103be57600080fd5b5061034f601481565b3480156103d357600080fd5b5061033c610b15565b3480156103e857600080fd5b5061033c6103f73660046121b1565b610b5c565b34801561040857600080fd5b50601461034f565b34801561041c57600080fd5b5061034f61042b366004612346565b610b77565b34801561043c57600080fd5b5061033c61044b36600461215e565b610c18565b34801561045c57600080fd5b5061033c61046b366004612346565b610c7a565b34801561047c57600080fd5b5061033c61048b366004612300565b610ca9565b34801561049c57600080fd5b5061034f610cea565b3480156104b157600080fd5b506103046104c0366004612346565b610cfa565b3480156104d157600080fd5b5061034f60115481565b3480156104e757600080fd5b50600e546102ad90610100900460ff1681565b34801561050657600080fd5b5061034f610d71565b34801561051b57600080fd5b506102d7610da3565b34801561053057600080fd5b50600e546102ad9060ff1681565b34801561054a57600080fd5b5061034f61055936600461215e565b610e31565b34801561056a57600080fd5b5061033c610eb8565b34801561057f57600080fd5b5061034f600f5481565b34801561059557600080fd5b5061034f60105481565b3480156105ab57600080fd5b506102ad610eee565b3480156105c057600080fd5b50600a546001600160a01b0316610304565b3480156105de57600080fd5b50600e54610100900460ff166102ad565b3480156105fb57600080fd5b506102d7610f12565b34801561061057600080fd5b50600e5460ff166102ad565b34801561062857600080fd5b5061033c610637366004612346565b610f21565b61033c61064a366004612346565b610f50565b34801561065b57600080fd5b5061033c61066a366004612265565b611103565b34801561067b57600080fd5b5060115461034f565b34801561069057600080fd5b5061033c61069f3660046121ec565b61110e565b3480156106b057600080fd5b50600f5461034f565b3480156106c557600080fd5b5061034f611146565b3480156106da57600080fd5b506102d7611151565b3480156106ef57600080fd5b506102d76106fe366004612346565b61115e565b34801561070f57600080fd5b5061033c61071e366004612300565b611384565b34801561072f57600080fd5b5061033c6113c1565b34801561074457600080fd5b506102ad61075336600461217f565b6001600160a01b03918216600090815260056020908152604080832093909416825291909152205460ff1690565b34801561078d57600080fd5b5061033c61079c36600461215e565b6113ff565b3480156107ad57600080fd5b5061033c6107bc366004612346565b611497565b3480156107cd57600080fd5b5061033c6107dc366004612300565b6114c6565b60006001600160e01b0319821663780e9d6360e01b1480610806575061080682611503565b92915050565b60606000805461081b90612631565b80601f016020809104026020016040519081016040528092919081815260200182805461084790612631565b80156108945780601f1061086957610100808354040283529160200191610894565b820191906000526020600020905b81548152906001019060200180831161087757829003601f168201915b5050505050905090565b6000818152600260205260408120546001600160a01b031661091c5760405162461bcd60e51b815260206004820152602c60248201527f4552433732313a20617070726f76656420717565727920666f72206e6f6e657860448201526b34b9ba32b73a103a37b5b2b760a11b60648201526084015b60405180910390fd5b506000908152600460205260409020546001600160a01b031690565b600061094382610cfa565b9050806001600160a01b0316836001600160a01b031614156109b15760405162461bcd60e51b815260206004820152602160248201527f4552433732313a20617070726f76616c20746f2063757272656e74206f776e656044820152603960f91b6064820152608401610913565b336001600160a01b03821614806109cd57506109cd8133610753565b610a3f5760405162461bcd60e51b815260206004820152603860248201527f4552433732313a20617070726f76652063616c6c6572206973206e6f74206f7760448201527f6e6572206e6f7220617070726f76656420666f7220616c6c00000000000000006064820152608401610913565b610a498383611553565b505050565b610a5833826115c1565b610a745760405162461bcd60e51b815260040161091390612552565b610a498383836116b8565b6000610a8a83610e31565b8210610aec5760405162461bcd60e51b815260206004820152602b60248201527f455243373231456e756d657261626c653a206f776e657220696e646578206f7560448201526a74206f6620626f756e647360a81b6064820152608401610913565b506001600160a01b03919091166000908152600660209081526040808320938352929052205490565b600a546001600160a01b03163314610b3f5760405162461bcd60e51b81526004016109139061251d565b600e805461ff001981166101009182900460ff1615909102179055565b610a498383836040518060200160405280600081525061110e565b6000610b8260085490565b8210610be55760405162461bcd60e51b815260206004820152602c60248201527f455243373231456e756d657261626c653a20676c6f62616c20696e646578206f60448201526b7574206f6620626f756e647360a01b6064820152608401610913565b60088281548110610c0657634e487b7160e01b600052603260045260246000fd5b90600052602060002001549050919050565b600a546001600160a01b03163314610c425760405162461bcd60e51b81526004016109139061251d565b60405147906001600160a01b0383169082156108fc029083906000818181858888f19350505050158015610a49573d6000803e3d6000fd5b600a546001600160a01b03163314610ca45760405162461bcd60e51b81526004016109139061251d565b601055565b600a546001600160a01b03163314610cd35760405162461bcd60e51b81526004016109139061251d565b8051610ce690600b906020840190612033565b5050565b6000610cf533610e31565b905090565b6000818152600260205260408120546001600160a01b0316806108065760405162461bcd60e51b815260206004820152602960248201527f4552433732313a206f776e657220717565727920666f72206e6f6e657869737460448201526832b73a103a37b5b2b760b91b6064820152608401610913565b600a546000906001600160a01b03163314610d9e5760405162461bcd60e51b81526004016109139061251d565b504790565b600c8054610db090612631565b80601f0160208091040260200160405190810160405280929190818152602001828054610ddc90612631565b8015610e295780601f10610dfe57610100808354040283529160200191610e29565b820191906000526020600020905b815481529060010190602001808311610e0c57829003601f168201915b505050505081565b60006001600160a01b038216610e9c5760405162461bcd60e51b815260206004820152602a60248201527f4552433732313a2062616c616e636520717565727920666f7220746865207a65604482015269726f206164647265737360b01b6064820152608401610913565b506001600160a01b031660009081526003602052604090205490565b600a546001600160a01b03163314610ee25760405162461bcd60e51b81526004016109139061251d565b610eec600061185f565b565b600033610f03600a546001600160a01b031690565b6001600160a01b031614905090565b60606001805461081b90612631565b600a546001600160a01b03163314610f4b5760405162461bcd60e51b81526004016109139061251d565b600f55565b601481610f5c60085490565b610f6691906125a3565b1115610fa95760405162461bcd60e51b815260206004820152601260248201527145786365656473206d617820737570706c7960701b6044820152606401610913565b600e5460ff16610ffb5760405162461bcd60e51b815260206004820152601960248201527f53616c65206973206e6f7420726561647920746f206d696e74000000000000006044820152606401610913565b600f548161100833610e31565b61101291906125a3565b11156110605760405162461bcd60e51b815260206004820152601860248201527f53616c652065786365656473206d61782062616c616e636500000000000000006044820152606401610913565b6010548111156110a55760405162461bcd60e51b815260206004820152601060248201526f115e18d959591cc81b585e081b5a5b9d60821b6044820152606401610913565b34601154826110b491906125cf565b11156110f75760405162461bcd60e51b81526020600482015260126024820152714e6f7420656e6f756768206761732066656560701b6044820152606401610913565b611100816118b1565b50565b610ce63383836118ee565b61111833836115c1565b6111345760405162461bcd60e51b815260040161091390612552565b611140848484846119bd565b50505050565b6000610cf560085490565b600d8054610db090612631565b6000818152600260205260409020546060906001600160a01b03166111dd5760405162461bcd60e51b815260206004820152602f60248201527f4552433732314d657461646174613a2055524920717565727920666f72206e6f60448201526e3732bc34b9ba32b73a103a37b5b2b760891b6064820152608401610913565b600e54610100900460ff1661127e57600c80546111f990612631565b80601f016020809104026020016040519081016040528092919081815260200182805461122590612631565b80156112725780601f1061124757610100808354040283529160200191611272565b820191906000526020600020905b81548152906001019060200180831161125557829003601f168201915b50505050509050919050565b6000828152601260205260408120805461129790612631565b80601f01602080910402602001604051908101604052809291908181526020018280546112c390612631565b80156113105780601f106112e557610100808354040283529160200191611310565b820191906000526020600020905b8154815290600101906020018083116112f357829003601f168201915b5050505050905060006113216119f0565b9050805160001415611334575092915050565b81511561136657808260405160200161134e92919061238a565b60405160208183030381529060405292505050919050565b80611370856119ff565b600d60405160200161134e939291906123b9565b600a546001600160a01b031633146113ae5760405162461bcd60e51b81526004016109139061251d565b8051610ce690600d906020840190612033565b600a546001600160a01b031633146113eb5760405162461bcd60e51b81526004016109139061251d565b600e805460ff19811660ff90911615179055565b600a546001600160a01b031633146114295760405162461bcd60e51b81526004016109139061251d565b6001600160a01b03811661148e5760405162461bcd60e51b815260206004820152602660248201527f4f776e61626c653a206e6577206f776e657220697320746865207a65726f206160448201526564647265737360d01b6064820152608401610913565b6111008161185f565b600a546001600160a01b031633146114c15760405162461bcd60e51b81526004016109139061251d565b601155565b600a546001600160a01b031633146114f05760405162461bcd60e51b81526004016109139061251d565b8051610ce690600c906020840190612033565b60006001600160e01b031982166380ac58cd60e01b148061153457506001600160e01b03198216635b5e139f60e01b145b8061080657506301ffc9a760e01b6001600160e01b0319831614610806565b600081815260046020526040902080546001600160a01b0319166001600160a01b038416908117909155819061158882610cfa565b6001600160a01b03167f8c5be1e5ebec7d5bd14f71427d1e84f3dd0314c0f7b2291e5b200ac8c7c3b92560405160405180910390a45050565b6000818152600260205260408120546001600160a01b031661163a5760405162461bcd60e51b815260206004820152602c60248201527f4552433732313a206f70657261746f7220717565727920666f72206e6f6e657860448201526b34b9ba32b73a103a37b5b2b760a11b6064820152608401610913565b600061164583610cfa565b9050806001600160a01b0316846001600160a01b0316148061168c57506001600160a01b0380821660009081526005602090815260408083209388168352929052205460ff165b806116b05750836001600160a01b03166116a58461089e565b6001600160a01b0316145b949350505050565b826001600160a01b03166116cb82610cfa565b6001600160a01b03161461172f5760405162461bcd60e51b815260206004820152602560248201527f4552433732313a207472616e736665722066726f6d20696e636f72726563742060448201526437bbb732b960d91b6064820152608401610913565b6001600160a01b0382166117915760405162461bcd60e51b8152602060048201526024808201527f4552433732313a207472616e7366657220746f20746865207a65726f206164646044820152637265737360e01b6064820152608401610913565b61179c838383611b19565b6117a7600082611553565b6001600160a01b03831660009081526003602052604081208054600192906117d09084906125ee565b90915550506001600160a01b03821660009081526003602052604081208054600192906117fe9084906125a3565b909155505060008181526002602052604080822080546001600160a01b0319166001600160a01b0386811691821790925591518493918716917fddf252ad1be2c89b69c2b068fc378daa952ba7f163c4a11628f55a4df523b3ef91a4505050565b600a80546001600160a01b038381166001600160a01b0319831681179093556040519116919082907f8be0079c531659141344cd1fd0a4f28419497f9722a3daafe3b4186f6b6457e090600090a35050565b60005b81811015610ce65760006118c760085490565b9050601481116118db576118db3382611bd1565b50806118e68161266c565b9150506118b4565b816001600160a01b0316836001600160a01b031614156119505760405162461bcd60e51b815260206004820152601960248201527f4552433732313a20617070726f766520746f2063616c6c6572000000000000006044820152606401610913565b6001600160a01b03838116600081815260056020908152604080832094871680845294825291829020805460ff191686151590811790915591519182527f17307eab39ab6107e8899845ad3d59bd9653f200f220920489ca2b5937696c31910160405180910390a3505050565b6119c88484846116b8565b6119d484848484611beb565b6111405760405162461bcd60e51b8152600401610913906124cb565b6060600b805461081b90612631565b606081611a235750506040805180820190915260018152600360fc1b602082015290565b8160005b8115611a4d5780611a378161266c565b9150611a469050600a836125bb565b9150611a27565b60008167ffffffffffffffff811115611a7657634e487b7160e01b600052604160045260246000fd5b6040519080825280601f01601f191660200182016040528015611aa0576020820181803683370190505b5090505b84156116b057611ab56001836125ee565b9150611ac2600a86612687565b611acd9060306125a3565b60f81b818381518110611af057634e487b7160e01b600052603260045260246000fd5b60200101906001600160f81b031916908160001a905350611b12600a866125bb565b9450611aa4565b6001600160a01b038316611b7457611b6f81600880546000838152600960205260408120829055600182018355919091527ff3f7a9fe364faab93b216da50a3214154f22a0a2b415b23a84c8169e8b636ee30155565b611b97565b816001600160a01b0316836001600160a01b031614611b9757611b978382611cf8565b6001600160a01b038216611bae57610a4981611d95565b826001600160a01b0316826001600160a01b031614610a4957610a498282611e6e565b610ce6828260405180602001604052806000815250611eb2565b60006001600160a01b0384163b15611ced57604051630a85bd0160e11b81526001600160a01b0385169063150b7a0290611c2f90339089908890889060040161247b565b602060405180830381600087803b158015611c4957600080fd5b505af1925050508015611c79575060408051601f3d908101601f19168201909252611c76918101906122e4565b60015b611cd3573d808015611ca7576040519150601f19603f3d011682016040523d82523d6000602084013e611cac565b606091505b508051611ccb5760405162461bcd60e51b8152600401610913906124cb565b805181602001fd5b6001600160e01b031916630a85bd0160e11b1490506116b0565b506001949350505050565b60006001611d0584610e31565b611d0f91906125ee565b600083815260076020526040902054909150808214611d62576001600160a01b03841660009081526006602090815260408083208584528252808320548484528184208190558352600790915290208190555b5060009182526007602090815260408084208490556001600160a01b039094168352600681528383209183525290812055565b600854600090611da7906001906125ee565b60008381526009602052604081205460088054939450909284908110611ddd57634e487b7160e01b600052603260045260246000fd5b906000526020600020015490508060088381548110611e0c57634e487b7160e01b600052603260045260246000fd5b6000918252602080832090910192909255828152600990915260408082208490558582528120556008805480611e5257634e487b7160e01b600052603160045260246000fd5b6001900381819060005260206000200160009055905550505050565b6000611e7983610e31565b6001600160a01b039093166000908152600660209081526040808320868452825280832085905593825260079052919091209190915550565b611ebc8383611ee5565b611ec96000848484611beb565b610a495760405162461bcd60e51b8152600401610913906124cb565b6001600160a01b038216611f3b5760405162461bcd60e51b815260206004820181905260248201527f4552433732313a206d696e7420746f20746865207a65726f20616464726573736044820152606401610913565b6000818152600260205260409020546001600160a01b031615611fa05760405162461bcd60e51b815260206004820152601c60248201527f4552433732313a20746f6b656e20616c7265616479206d696e746564000000006044820152606401610913565b611fac60008383611b19565b6001600160a01b0382166000908152600360205260408120805460019290611fd59084906125a3565b909155505060008181526002602052604080822080546001600160a01b0319166001600160a01b03861690811790915590518392907fddf252ad1be2c89b69c2b068fc378daa952ba7f163c4a11628f55a4df523b3ef908290a45050565b82805461203f90612631565b90600052602060002090601f01602090048101928261206157600085556120a7565b82601f1061207a57805160ff19168380011785556120a7565b828001600101855582156120a7579182015b828111156120a757825182559160200191906001019061208c565b506120b39291506120b7565b5090565b5b808211156120b357600081556001016120b8565b600067ffffffffffffffff808411156120e7576120e76126c7565b604051601f8501601f19908116603f0116810190828211818310171561210f5761210f6126c7565b8160405280935085815286868601111561212857600080fd5b858560208301376000602087830101525050509392505050565b80356001600160a01b038116811461215957600080fd5b919050565b60006020828403121561216f578081fd5b61217882612142565b9392505050565b60008060408385031215612191578081fd5b61219a83612142565b91506121a860208401612142565b90509250929050565b6000806000606084860312156121c5578081fd5b6121ce84612142565b92506121dc60208501612142565b9150604084013590509250925092565b60008060008060808587031215612201578081fd5b61220a85612142565b935061221860208601612142565b925060408501359150606085013567ffffffffffffffff81111561223a578182fd5b8501601f8101871361224a578182fd5b612259878235602084016120cc565b91505092959194509250565b60008060408385031215612277578182fd5b61228083612142565b915060208301358015158114612294578182fd5b809150509250929050565b600080604083850312156122b1578182fd5b6122ba83612142565b946020939093013593505050565b6000602082840312156122d9578081fd5b8135612178816126dd565b6000602082840312156122f5578081fd5b8151612178816126dd565b600060208284031215612311578081fd5b813567ffffffffffffffff811115612327578182fd5b8201601f81018413612337578182fd5b6116b0848235602084016120cc565b600060208284031215612357578081fd5b5035919050565b60008151808452612376816020860160208601612605565b601f01601f19169290920160200192915050565b6000835161239c818460208801612605565b8351908301906123b0818360208801612605565b01949350505050565b6000845160206123cc8285838a01612605565b8551918401916123df8184848a01612605565b85549201918390600181811c90808316806123fb57607f831692505b85831081141561241957634e487b7160e01b88526022600452602488fd5b80801561242d576001811461243e5761246a565b60ff1985168852838801955061246a565b60008b815260209020895b858110156124625781548a820152908401908801612449565b505083880195505b50939b9a5050505050505050505050565b6001600160a01b03858116825284166020820152604081018390526080606082018190526000906124ae9083018461235e565b9695505050505050565b602081526000612178602083018461235e565b60208082526032908201527f4552433732313a207472616e7366657220746f206e6f6e20455243373231526560408201527131b2b4bb32b91034b6b83632b6b2b73a32b960711b606082015260800190565b6020808252818101527f4f776e61626c653a2063616c6c6572206973206e6f7420746865206f776e6572604082015260600190565b60208082526031908201527f4552433732313a207472616e736665722063616c6c6572206973206e6f74206f6040820152701ddb995c881b9bdc88185c1c1c9bdd9959607a1b606082015260800190565b600082198211156125b6576125b661269b565b500190565b6000826125ca576125ca6126b1565b500490565b60008160001904831182151516156125e9576125e961269b565b500290565b6000828210156126005761260061269b565b500390565b60005b83811015612620578181015183820152602001612608565b838111156111405750506000910152565b600181811c9082168061264557607f821691505b6020821081141561266657634e487b7160e01b600052602260045260246000fd5b50919050565b60006000198214156126805761268061269b565b5060010190565b600082612696576126966126b1565b500690565b634e487b7160e01b600052601160045260246000fd5b634e487b7160e01b600052601260045260246000fd5b634e487b7160e01b600052604160045260246000fd5b6001600160e01b03198116811461110057600080fdfea26469706673582212206550d102e9319ba7610e1b7089779b84749b4c807813fad99b4a403963cf6b2764736f6c634300080400334f776e61626c653a2063616c6c6572206973206e6f7420746865206f776e6572",
  "linkReferences": {},
  "deployedLinkReferences": {}
}